:100000000C9434000C943E000C943E000C943E0082
:100010000C943E000C943E000C943E000C943E0068
:100020000C943E000C943E000C943E000C943E0058
:100030000C943E000C943E000C943E000C943E0048
:100040000C943E000C943E000C943E000C943E0038
:100050000C943E000C943E000C943E000C943E0028
:100060000C943E000C943E0011241FBECFEFD8E04C
:10007000DEBFCDBF0E9440000C948F000C940000A6
:100080008AB1886F8AB98BB188608BB92FEF89E606
:1000900098E1215080409040E1F700C000008BB112
:1000A000877F8BB98BB180618BB92FEF89E698E19F
:1000B000215080409040E1F700C000008BB18F7E5E
:1000C0008BB98BB180628BB92FEF89E698E1215013
:1000D00080409040E1F700C000008BB18F7D8BB96C
:1000E0008BB180648BB92FEF89E698E12150804075
:1000F0009040E1F700C000008BB18F7B8BB98BB1D2
:1001000080688BB92FEF89E698E1215080409040BC
:10011000E1F700C000008BB18F778BB9B4CFF894B2
:02012000FFCF0F
:00000001FF
